{
  "contractName": "Color",
  "abi": [
    {
      "inputs": [],
      "stateMutability": "nonpayable",
      "type": "constructor"
    },
    {
      "anonymous": false,
      "inputs": [
        {
          "indexed": true,
          "internalType": "address",
          "name": "owner",
          "type": "address"
        },
        {
          "indexed": true,
          "internalType": "address",
          "name": "approved",
          "type": "address"
        },
        {
          "indexed": true,
          "internalType": "uint256",
          "name": "tokenId",
          "type": "uint256"
        }
      ],
      "name": "Approval",
      "type": "event"
    },
    {
      "anonymous": false,
      "inputs": [
        {
          "indexed": true,
          "internalType": "address",
          "name": "owner",
          "type": "address"
        },
        {
          "indexed": true,
          "internalType": "address",
          "name": "operator",
          "type": "address"
        },
        {
          "indexed": false,
          "internalType": "bool",
          "name": "approved",
          "type": "bool"
        }
      ],
      "name": "ApprovalForAll",
      "type": "event"
    },
    {
      "anonymous": false,
      "inputs": [
        {
          "indexed": true,
          "internalType": "address",
          "name": "from",
          "type": "address"
        },
        {
          "indexed": true,
          "internalType": "address",
          "name": "to",
          "type": "address"
        },
        {
          "indexed": true,
          "internalType": "uint256",
          "name": "tokenId",
          "type": "uint256"
        }
      ],
      "name": "Transfer",
      "type": "event"
    },
    {
      "inputs": [
        {
          "internalType": "address",
          "name": "to",
          "type": "address"
        },
        {
          "internalType": "uint256",
          "name": "tokenId",
          "type": "uint256"
        }
      ],
      "name": "approve",
      "outputs": [],
      "stateMutability": "nonpayable",
      "type": "function"
    },
    {
      "inputs": [
        {
          "internalType": "address",
          "name": "owner",
          "type": "address"
        }
      ],
      "name": "balanceOf",
      "outputs": [
        {
          "internalType": "uint256",
          "name": "",
          "type": "uint256"
        }
      ],
      "stateMutability": "view",
      "type": "function",
      "constant": true
    },
    {
      "inputs": [
        {
          "internalType": "uint256",
          "name": "tokenId",
          "type": "uint256"
        }
      ],
      "name": "getApproved",
      "outputs": [
        {
          "internalType": "address",
          "name": "",
          "type": "address"
        }
      ],
      "stateMutability": "view",
      "type": "function",
      "constant": true
    },
    {
      "inputs": [
        {
          "internalType": "address",
          "name": "owner",
          "type": "address"
        },
        {
          "internalType": "address",
          "name": "operator",
          "type": "address"
        }
      ],
      "name": "isApprovedForAll",
      "outputs": [
        {
          "internalType": "bool",
          "name": "",
          "type": "bool"
        }
      ],
      "stateMutability": "view",
      "type": "function",
      "constant": true
    },
    {
      "inputs": [
        {
          "internalType": "uint256",
          "name": "",
          "type": "uint256"
        }
      ],
      "name": "mintedColors",
      "outputs": [
        {
          "internalType": "string",
          "name": "",
          "type": "string"
        }
      ],
      "stateMutability": "view",
      "type": "function",
      "constant": true
    },
    {
      "inputs": [],
      "name": "name",
      "outputs": [
        {
          "internalType": "string",
          "name": "",
          "type": "string"
        }
      ],
      "stateMutability": "view",
      "type": "function",
      "constant": true
    },
    {
      "inputs": [
        {
          "internalType": "uint256",
          "name": "tokenId",
          "type": "uint256"
        }
      ],
      "name": "ownerOf",
      "outputs": [
        {
          "internalType": "address",
          "name": "",
          "type": "address"
        }
      ],
      "stateMutability": "view",
      "type": "function",
      "constant": true
    },
    {
      "inputs": [
        {
          "internalType": "address",
          "name": "from",
          "type": "address"
        },
        {
          "internalType": "address",
          "name": "to",
          "type": "address"
        },
        {
          "internalType": "uint256",
          "name": "tokenId",
          "type": "uint256"
        }
      ],
      "name": "safeTransferFrom",
      "outputs": [],
      "stateMutability": "nonpayable",
      "type": "function"
    },
    {
      "inputs": [
        {
          "internalType": "address",
          "name": "from",
          "type": "address"
        },
        {
          "internalType": "address",
          "name": "to",
          "type": "address"
        },
        {
          "internalType": "uint256",
          "name": "tokenId",
          "type": "uint256"
        },
        {
          "internalType": "bytes",
          "name": "data",
          "type": "bytes"
        }
      ],
      "name": "safeTransferFrom",
      "outputs": [],
      "stateMutability": "nonpayable",
      "type": "function"
    },
    {
      "inputs": [
        {
          "internalType": "address",
          "name": "operator",
          "type": "address"
        },
        {
          "internalType": "bool",
          "name": "approved",
          "type": "bool"
        }
      ],
      "name": "setApprovalForAll",
      "outputs": [],
      "stateMutability": "nonpayable",
      "type": "function"
    },
    {
      "inputs": [
        {
          "internalType": "bytes4",
          "name": "interfaceId",
          "type": "bytes4"
        }
      ],
      "name": "supportsInterface",
      "outputs": [
        {
          "internalType": "bool",
          "name": "",
          "type": "bool"
        }
      ],
      "stateMutability": "view",
      "type": "function",
      "constant": true
    },
    {
      "inputs": [],
      "name": "symbol",
      "outputs": [
        {
          "internalType": "string",
          "name": "",
          "type": "string"
        }
      ],
      "stateMutability": "view",
      "type": "function",
      "constant": true
    },
    {
      "inputs": [
        {
          "internalType": "uint256",
          "name": "index",
          "type": "uint256"
        }
      ],
      "name": "tokenByIndex",
      "outputs": [
        {
          "internalType": "uint256",
          "name": "",
          "type": "uint256"
        }
      ],
      "stateMutability": "view",
      "type": "function",
      "constant": true
    },
    {
      "inputs": [
        {
          "internalType": "address",
          "name": "owner",
          "type": "address"
        },
        {
          "internalType": "uint256",
          "name": "index",
          "type": "uint256"
        }
      ],
      "name": "tokenOfOwnerByIndex",
      "outputs": [
        {
          "internalType": "uint256",
          "name": "",
          "type": "uint256"
        }
      ],
      "stateMutability": "view",
      "type": "function",
      "constant": true
    },
    {
      "inputs": [
        {
          "internalType": "uint256",
          "name": "tokenId",
          "type": "uint256"
        }
      ],
      "name": "tokenURI",
      "outputs": [
        {
          "internalType": "string",
          "name": "",
          "type": "string"
        }
      ],
      "stateMutability": "view",
      "type": "function",
      "constant": true
    },
    {
      "inputs": [],
      "name": "totalSupply",
      "outputs": [
        {
          "internalType": "uint256",
          "name": "",
          "type": "uint256"
        }
      ],
      "stateMutability": "view",
      "type": "function",
      "constant": true
    },
    {
      "inputs": [
        {
          "internalType": "address",
          "name": "from",
          "type": "address"
        },
        {
          "internalType": "address",
          "name": "to",
          "type": "address"
        },
        {
          "internalType": "uint256",
          "name": "tokenId",
          "type": "uint256"
        }
      ],
      "name": "transferFrom",
      "outputs": [],
      "stateMutability": "nonpayable",
      "type": "function"
    },
    {
      "inputs": [
        {
          "internalType": "string",
          "name": "_color",
          "type": "string"
        }
      ],
      "name": "mint",
      "outputs": [],
      "stateMutability": "nonpayable",
      "type": "function"
    },
    {
      "inputs": [],
      "name": "getMintedColors",
      "outputs": [
        {
          "internalType": "string[]",
          "name": "",
          "type": "string[]"
        }
      ],
      "stateMutability": "view",
      "type": "function",
      "constant": true
    }
  ],
  "bytecode": "0x60806040523480156200001157600080fd5b506040518060400160405280600d81526020017f556e6971756520436f6c6f7273000000000000000000000000000000000000008152506040518060400160405280600381526020017f55434f000000000000000000000000000000000000000000000000000000000081525081600090816200008f919062000324565b508060019081620000a1919062000324565b5050506200040b565b600081519050919050565b7f4e487b7100000000000000000000000000000000000000000000000000000000600052604160045260246000fd5b7f4e487b7100000000000000000000000000000000000000000000000000000000600052602260045260246000fd5b600060028204905060018216806200012c57607f821691505b602082108103620001425762000141620000e4565b5b50919050565b60008190508160005260206000209050919050565b60006020601f8301049050919050565b600082821b905092915050565b600060088302620001ac7fffffffffffffffffffffffffffffffffffffffffffffffffffffffffffffffff826200016d565b620001b886836200016d565b95508019841693508086168417925050509392505050565b6000819050919050565b6000819050919050565b600062000205620001ff620001f984620001d0565b620001da565b620001d0565b9050919050565b6000819050919050565b6200022183620001e4565b6200023962000230826200020c565b8484546200017a565b825550505050565b600090565b6200025062000241565b6200025d81848462000216565b505050565b5b8181101562000285576200027960008262000246565b60018101905062000263565b5050565b601f821115620002d4576200029e8162000148565b620002a9846200015d565b81016020851015620002b9578190505b620002d1620002c8856200015d565b83018262000262565b50505b505050565b600082821c905092915050565b6000620002f960001984600802620002d9565b1980831691505092915050565b6000620003148383620002e6565b9150826002028217905092915050565b6200032f82620000aa565b67ffffffffffffffff8111156200034b576200034a620000b5565b5b62000357825462000113565b6200036482828562000289565b600060209050601f8311600181146200039c576000841562000387578287015190505b62000393858262000306565b86555062000403565b601f198416620003ac8662000148565b60005b82811015620003d657848901518255600182019150602085019450602081019050620003af565b86831015620003f65784890151620003f2601f891682620002e6565b8355505b6001600288020188555050505b505050505050565b6136b5806200041b6000396000f3fe608060405234801561001057600080fd5b50600436106101215760003560e01c80634f6ccce7116100ad578063b88d4fde11610071578063b88d4fde1461032e578063c87b56dd1461034a578063d85d3d271461037a578063e2f7c36214610396578063e985e9c5146103c657610121565b80634f6ccce7146102645780636352211e1461029457806370a08231146102c457806395d89b41146102f4578063a22cb4651461031257610121565b806318160ddd116100f457806318160ddd146101c057806323b872dd146101de5780632f745c59146101fa5780633ec8ae511461022a57806342842e0e1461024857610121565b806301ffc9a71461012657806306fdde0314610156578063081812fc14610174578063095ea7b3146101a4575b600080fd5b610140600480360381019061013b91906121ed565b6103f6565b60405161014d9190612235565b60405180910390f35b61015e610470565b60405161016b91906122e0565b60405180910390f35b61018e60048036038101906101899190612338565b610502565b60405161019b91906123a6565b60405180910390f35b6101be60048036038101906101b991906123ed565b610548565b005b6101c861065f565b6040516101d5919061243c565b60405180910390f35b6101f860048036038101906101f39190612457565b61066c565b005b610214600480360381019061020f91906123ed565b6106cc565b604051610221919061243c565b60405180910390f35b610232610771565b60405161023f91906125b6565b60405180910390f35b610262600480360381019061025d9190612457565b61084a565b005b61027e60048036038101906102799190612338565b61086a565b60405161028b919061243c565b60405180910390f35b6102ae60048036038101906102a99190612338565b6108db565b6040516102bb91906123a6565b60405180910390f35b6102de60048036038101906102d991906125d8565b610961565b6040516102eb919061243c565b60405180910390f35b6102fc610a18565b60405161030991906122e0565b60405180910390f35b61032c60048036038101906103279190612631565b610aaa565b005b610348600480360381019061034391906127a6565b610ac0565b005b610364600480360381019061035f9190612338565b610b22565b60405161037191906122e0565b60405180910390f35b610394600480360381019061038f91906128ca565b610b8a565b005b6103b060048036038101906103ab9190612338565b610c86565b6040516103bd91906122e0565b60405180910390f35b6103e060048036038101906103db9190612913565b610d32565b6040516103ed9190612235565b60405180910390f35b60007f780e9d63000000000000000000000000000000000000000000000000000000007bffffffffffffffffffffffffffffffffffffffffffffffffffffffff1916827bffffffffffffffffffffffffffffffffffffffffffffffffffffffff19161480610469575061046882610dc6565b5b9050919050565b60606000805461047f90612982565b80601f01602080910402602001604051908101604052809291908181526020018280546104ab90612982565b80156104f85780601f106104cd576101008083540402835291602001916104f8565b820191906000526020600020905b8154815290600101906020018083116104db57829003601f168201915b5050505050905090565b600061050d82610ea8565b6004600083815260200190815260200160002060009054906101000a900473ffffffffffffffffffffffffffffffffffffffff169050919050565b6000610553826108db565b90508073ffffffffffffffffffffffffffffffffffffffff168373ffffffffffffffffffffffffffffffffffffffff16036105c3576040517f08c379a00000000000000000000000000000000000000000000000000000000081526004016105ba90612a25565b60405180910390fd5b8073ffffffffffffffffffffffffffffffffffffffff166105e2610ef3565b73ffffffffffffffffffffffffffffffffffffffff16148061061157506106108161060b610ef3565b610d32565b5b610650576040517f08c379a000000000000000000000000000000000000000000000000000000000815260040161064790612ab7565b60405180910390fd5b61065a8383610efb565b505050565b6000600880549050905090565b61067d610677610ef3565b82610fb4565b6106bc576040517f08c379a00000000000000000000000000000000000000000000000000000000081526004016106b390612b49565b60405180910390fd5b6106c7838383611049565b505050565b60006106d783610961565b8210610718576040517f08c379a000000000000000000000000000000000000000000000000000000000815260040161070f90612bdb565b60405180910390fd5b600660008473ffffffffffffffffffffffffffffffffffffffff1673ffffffffffffffffffffffffffffffffffffffff168152602001908152602001600020600083815260200190815260200160002054905092915050565b6060600a805480602002602001604051908101604052809291908181526020016000905b828210156108415783829060005260206000200180546107b490612982565b80601f01602080910402602001604051908101604052809291908181526020018280546107e090612982565b801561082d5780601f106108025761010080835404028352916020019161082d565b820191906000526020600020905b81548152906001019060200180831161081057829003601f168201915b505050505081526020019060010190610795565b50505050905090565b61086583838360405180602001604052806000815250610ac0565b505050565b600061087461065f565b82106108b5576040517f08c379a00000000000000000000000000000000000000000000000000000000081526004016108ac90612c6d565b60405180910390fd5b600882815481106108c9576108c8612c8d565b5b90600052602060002001549050919050565b6000806108e783611342565b9050600073ffffffffffffffffffffffffffffffffffffffff168173ffffffffffffffffffffffffffffffffffffffff1603610958576040517f08c379a000000000000000000000000000000000000000000000000000000000815260040161094f90612d08565b60405180910390fd5b80915050919050565b60008073ffffffffffffffffffffffffffffffffffffffff168273ffffffffffffffffffffffffffffffffffffffff16036109d1576040517f08c379a00000000000000000000000000000000000000000000000000000000081526004016109c890612d9a565b60405180910390fd5b600360008373ffffffffffffffffffffffffffffffffffffffff1673ffffffffffffffffffffffffffffffffffffffff168152602001908152602001600020549050919050565b606060018054610a2790612982565b80601f0160208091040260200160405190810160405280929190818152602001828054610a5390612982565b8015610aa05780601f10610a7557610100808354040283529160200191610aa0565b820191906000526020600020905b815481529060010190602001808311610a8357829003601f168201915b5050505050905090565b610abc610ab5610ef3565b838361137f565b5050565b610ad1610acb610ef3565b83610fb4565b610b10576040517f08c379a0000000000000000000000000000000000000000000000000000000008152600401610b0790612b49565b60405180910390fd5b610b1c848484846114eb565b50505050565b6060610b2d82610ea8565b6000610b37611547565b90506000815111610b575760405180602001604052806000815250610b82565b80610b618461155e565b604051602001610b72929190612df6565b6040516020818303038152906040525b915050919050565b600b81604051610b9a9190612e1a565b908152602001604051809103902060009054906101000a900460ff1615610bf6576040517f08c379a0000000000000000000000000000000000000000000000000000000008152600401610bed90612e7d565b60405180910390fd5b600a81908060018154018082558091505060019003906000526020600020016000909190919091509081610c2a9190613049565b5060006001600a80549050610c3f919061314a565b9050610c4b338261162c565b6001600b83604051610c5d9190612e1a565b908152602001604051809103902060006101000a81548160ff0219169083151502179055505050565b600a8181548110610c9657600080fd5b906000526020600020016000915090508054610cb190612982565b80601f0160208091040260200160405190810160405280929190818152602001828054610cdd90612982565b8015610d2a5780601f10610cff57610100808354040283529160200191610d2a565b820191906000526020600020905b815481529060010190602001808311610d0d57829003601f168201915b505050505081565b6000600560008473ffffffffffffffffffffffffffffffffffffffff1673ffffffffffffffffffffffffffffffffffffffff16815260200190815260200160002060008373ffffffffffffffffffffffffffffffffffffffff1673ffffffffffffffffffffffffffffffffffffffff16815260200190815260200160002060009054906101000a900460ff16905092915050565b60007f80ac58cd000000000000000000000000000000000000000000000000000000007bffffffffffffffffffffffffffffffffffffffffffffffffffffffff1916827bffffffffffffffffffffffffffffffffffffffffffffffffffffffff19161480610e9157507f5b5e139f000000000000000000000000000000000000000000000000000000007bffffffffffffffffffffffffffffffffffffffffffffffffffffffff1916827bffffffffffffffffffffffffffffffffffffffffffffffffffffffff1916145b80610ea15750610ea082611849565b5b9050919050565b610eb1816118b3565b610ef0576040517f08c379a0000000000000000000000000000000000000000000000000000000008152600401610ee790612d08565b60405180910390fd5b50565b600033905090565b816004600083815260200190815260200160002060006101000a81548173ffffffffffffffffffffffffffffffffffffffff021916908373ffffffffffffffffffffffffffffffffffffffff160217905550808273ffffffffffffffffffffffffffffffffffffffff16610f6e836108db565b73ffffffffffffffffffffffffffffffffffffffff167f8c5be1e5ebec7d5bd14f71427d1e84f3dd0314c0f7b2291e5b200ac8c7c3b92560405160405180910390a45050565b600080610fc0836108db565b90508073ffffffffffffffffffffffffffffffffffffffff168473ffffffffffffffffffffffffffffffffffffffff16148061100257506110018185610d32565b5b8061104057508373ffffffffffffffffffffffffffffffffffffffff1661102884610502565b73ffffffffffffffffffffffffffffffffffffffff16145b91505092915050565b8273ffffffffffffffffffffffffffffffffffffffff16611069826108db565b73ffffffffffffffffffffffffffffffffffffffff16146110bf576040517f08c379a00000000000000000000000000000000000000000000000000000000081526004016110b6906131f0565b60405180910390fd5b600073ffffffffffffffffffffffffffffffffffffffff168273ffffffffffffffffffffffffffffffffffffffff160361112e576040517f08c379a000000000000000000000000000000000000000000000000000000000815260040161112590613282565b60405180910390fd5b61113b83838360016118f4565b8273ffffffffffffffffffffffffffffffffffffffff1661115b826108db565b73ffffffffffffffffffffffffffffffffffffffff16146111b1576040517f08c379a00000000000000000000000000000000000000000000000000000000081526004016111a8906131f0565b60405180910390fd5b6004600082815260200190815260200160002060006101000a81549073ffffffffffffffffffffffffffffffffffffffff02191690556001600360008573ffffffffffffffffffffffffffffffffffffffff1673ffffffffffffffffffffffffffffffffffffffff168152602001908152602001600020600082825403925050819055506001600360008473ffffffffffffffffffffffffffffffffffffffff1673ffffffffffffffffffffffffffffffffffffffff16815260200190815260200160002060008282540192505081905550816002600083815260200190815260200160002060006101000a81548173ffffffffffffffffffffffffffffffffffffffff021916908373ffffffffffffffffffffffffffffffffffffffff160217905550808273ffffffffffffffffffffffffffffffffffffffff168473ffffffffffffffffffffffffffffffffffffffff167fddf252ad1be2c89b69c2b068fc378daa952ba7f163c4a11628f55a4df523b3ef60405160405180910390a461133d8383836001611a52565b505050565b60006002600083815260200190815260200160002060009054906101000a900473ffffffffffffffffffffffffffffffffffffffff169050919050565b8173ffffffffffffffffffffffffffffffffffffffff168373ffffffffffffffffffffffffffffffffffffffff16036113ed576040517f08c379a00000000000000000000000000000000000000000000000000000000081526004016113e4906132ee565b60405180910390fd5b80600560008573ffffffffffffffffffffffffffffffffffffffff1673ffffffffffffffffffffffffffffffffffffffff16815260200190815260200160002060008473ffffffffffffffffffffffffffffffffffffffff1673ffffffffffffffffffffffffffffffffffffffff16815260200190815260200160002060006101000a81548160ff0219169083151502179055508173ffffffffffffffffffffffffffffffffffffffff168373ffffffffffffffffffffffffffffffffffffffff167f17307eab39ab6107e8899845ad3d59bd9653f200f220920489ca2b5937696c31836040516114de9190612235565b60405180910390a3505050565b6114f6848484611049565b61150284848484611a58565b611541576040517f08c379a000000000000000000000000000000000000000000000000000000000815260040161153890613380565b60405180910390fd5b50505050565b606060405180602001604052806000815250905090565b60606000600161156d84611bdf565b01905060008167ffffffffffffffff81111561158c5761158b61267b565b5b6040519080825280601f01601f1916602001820160405280156115be5781602001600182028036833780820191505090505b509050600082602001820190505b600115611621578080600190039150507f3031323334353637383961626364656600000000000000000000000000000000600a86061a8153600a8581611615576116146133a0565b5b049450600085036115cc575b819350505050919050565b600073ffffffffffffffffffffffffffffffffffffffff168273ffffffffffffffffffffffffffffffffffffffff160361169b576040517f08c379a00000000000000000000000000000000000000000000000000000000081526004016116929061341b565b60405180910390fd5b6116a4816118b3565b156116e4576040517f08c379a00000000000000000000000000000000000000000000000000000000081526004016116db90613487565b60405180910390fd5b6116f26000838360016118f4565b6116fb816118b3565b1561173b576040517f08c379a000000000000000000000000000000000000000000000000000000000815260040161173290613487565b60405180910390fd5b6001600360008473ffffffffffffffffffffffffffffffffffffffff1673ffffffffffffffffffffffffffffffffffffffff16815260200190815260200160002060008282540192505081905550816002600083815260200190815260200160002060006101000a81548173ffffffffffffffffffffffffffffffffffffffff021916908373ffffffffffffffffffffffffffffffffffffffff160217905550808273ffffffffffffffffffffffffffffffffffffffff16600073ffffffffffffffffffffffffffffffffffffffff167fddf252ad1be2c89b69c2b068fc378daa952ba7f163c4a11628f55a4df523b3ef60405160405180910390a4611845600083836001611a52565b5050565b60007f01ffc9a7000000000000000000000000000000000000000000000000000000007bffffffffffffffffffffffffffffffffffffffffffffffffffffffff1916827bffffffffffffffffffffffffffffffffffffffffffffffffffffffff1916149050919050565b60008073ffffffffffffffffffffffffffffffffffffffff166118d583611342565b73ffffffffffffffffffffffffffffffffffffffff1614159050919050565b61190084848484611d32565b6001811115611944576040517f08c379a000000000000000000000000000000000000000000000000000000000815260040161193b90613519565b60405180910390fd5b6000829050600073ffffffffffffffffffffffffffffffffffffffff168573ffffffffffffffffffffffffffffffffffffffff160361198b5761198681611e58565b6119ca565b8373ffffffffffffffffffffffffffffffffffffffff168573ffffffffffffffffffffffffffffffffffffffff16146119c9576119c88582611ea1565b5b5b600073ffffffffffffffffffffffffffffffffffffffff168473ffffffffffffffffffffffffffffffffffffffff1603611a0c57611a078161200e565b611a4b565b8473ffffffffffffffffffffffffffffffffffffffff168473ffffffffffffffffffffffffffffffffffffffff1614611a4a57611a4984826120df565b5b5b5050505050565b50505050565b6000611a798473ffffffffffffffffffffffffffffffffffffffff1661215e565b15611bd2578373ffffffffffffffffffffffffffffffffffffffff1663150b7a02611aa2610ef3565b8786866040518563ffffffff1660e01b8152600401611ac4949392919061358e565b6020604051808303816000875af1925050508015611b0057506040513d601f19601f82011682018060405250810190611afd91906135ef565b60015b611b82573d8060008114611b30576040519150601f19603f3d011682016040523d82523d6000602084013e611b35565b606091505b506000815103611b7a576040517f08c379a0000000000000000000000000000000000000000000000000000000008152600401611b7190613380565b60405180910390fd5b805181602001fd5b63150b7a0260e01b7bffffffffffffffffffffffffffffffffffffffffffffffffffffffff1916817bffffffffffffffffffffffffffffffffffffffffffffffffffffffff191614915050611bd7565b600190505b949350505050565b600080600090507a184f03e93ff9f4daa797ed6e38ed64bf6a1f0100000000000000008310611c3d577a184f03e93ff9f4daa797ed6e38ed64bf6a1f0100000000000000008381611c3357611c326133a0565b5b0492506040810190505b6d04ee2d6d415b85acef81000000008310611c7a576d04ee2d6d415b85acef81000000008381611c7057611c6f6133a0565b5b0492506020810190505b662386f26fc100008310611ca957662386f26fc100008381611c9f57611c9e6133a0565b5b0492506010810190505b6305f5e1008310611cd2576305f5e1008381611cc857611cc76133a0565b5b0492506008810190505b6127108310611cf7576127108381611ced57611cec6133a0565b5b0492506004810190505b60648310611d1a5760648381611d1057611d0f6133a0565b5b0492506002810190505b600a8310611d29576001810190505b80915050919050565b6001811115611e5257600073ffffffffffffffffffffffffffffffffffffffff168473ffffffffffffffffffffffffffffffffffffffff1614611dc65780600360008673ffffffffffffffffffffffffffffffffffffffff1673ffffffffffffffffffffffffffffffffffffffff1681526020019081526020016000206000828254611dbe919061314a565b925050819055505b600073ffffffffffffffffffffffffffffffffffffffff168373ffffffffffffffffffffffffffffffffffffffff1614611e515780600360008573ffffffffffffffffffffffffffffffffffffffff1673ffffffffffffffffffffffffffffffffffffffff1681526020019081526020016000206000828254611e49919061361c565b925050819055505b5b50505050565b6008805490506009600083815260200190815260200160002081905550600881908060018154018082558091505060019003906000526020600020016000909190919091505550565b60006001611eae84610961565b611eb8919061314a565b9050600060076000848152602001908152602001600020549050818114611f9d576000600660008673ffffffffffffffffffffffffffffffffffffffff1673ffffffffffffffffffffffffffffffffffffffff168152602001908152602001600020600084815260200190815260200160002054905080600660008773ffffffffffffffffffffffffffffffffffffffff1673ffffffffffffffffffffffffffffffffffffffff168152602001908152602001600020600084815260200190815260200160002081905550816007600083815260200190815260200160002081905550505b6007600084815260200190815260200160002060009055600660008573ffffffffffffffffffffffffffffffffffffffff1673ffffffffffffffffffffffffffffffffffffffff16815260200190815260200160002060008381526020019081526020016000206000905550505050565b60006001600880549050612022919061314a565b905060006009600084815260200190815260200160002054905060006008838154811061205257612051612c8d565b5b90600052602060002001549050806008838154811061207457612073612c8d565b5b9060005260206000200181905550816009600083815260200190815260200160002081905550600960008581526020019081526020016000206000905560088054806120c3576120c2613650565b5b6001900381819060005260206000200160009055905550505050565b60006120ea83610961565b905081600660008573ffffffffffffffffffffffffffffffffffffffff1673ffffffffffffffffffffffffffffffffffffffff168152602001908152602001600020600083815260200190815260200160002081905550806007600084815260200190815260200160002081905550505050565b6000808273ffffffffffffffffffffffffffffffffffffffff163b119050919050565b6000604051905090565b600080fd5b600080fd5b60007fffffffff0000000000000000000000000000000000000000000000000000000082169050919050565b6121ca81612195565b81146121d557600080fd5b50565b6000813590506121e7816121c1565b92915050565b6000602082840312156122035761220261218b565b5b6000612211848285016121d8565b91505092915050565b60008115159050919050565b61222f8161221a565b82525050565b600060208201905061224a6000830184612226565b92915050565b600081519050919050565b600082825260208201905092915050565b60005b8381101561228a57808201518184015260208101905061226f565b60008484015250505050565b6000601f19601f8301169050919050565b60006122b282612250565b6122bc818561225b565b93506122cc81856020860161226c565b6122d581612296565b840191505092915050565b600060208201905081810360008301526122fa81846122a7565b905092915050565b6000819050919050565b61231581612302565b811461232057600080fd5b50565b6000813590506123328161230c565b92915050565b60006020828403121561234e5761234d61218b565b5b600061235c84828501612323565b91505092915050565b600073ffffffffffffffffffffffffffffffffffffffff82169050919050565b600061239082612365565b9050919050565b6123a081612385565b82525050565b60006020820190506123bb6000830184612397565b92915050565b6123ca81612385565b81146123d557600080fd5b50565b6000813590506123e7816123c1565b92915050565b600080604083850312156124045761240361218b565b5b6000612412858286016123d8565b925050602061242385828601612323565b9150509250929050565b61243681612302565b82525050565b6000602082019050612451600083018461242d565b92915050565b6000806000606084860312156124705761246f61218b565b5b600061247e868287016123d8565b935050602061248f868287016123d8565b92505060406124a086828701612323565b9150509250925092565b600081519050919050565b600082825260208201905092915050565b6000819050602082019050919050565b600082825260208201905092915050565b60006124f282612250565b6124fc81856124d6565b935061250c81856020860161226c565b61251581612296565b840191505092915050565b600061252c83836124e7565b905092915050565b6000602082019050919050565b600061254c826124aa565b61255681856124b5565b935083602082028501612568856124c6565b8060005b858110156125a457848403895281516125858582612520565b945061259083612534565b925060208a0199505060018101905061256c565b50829750879550505050505092915050565b600060208201905081810360008301526125d08184612541565b905092915050565b6000602082840312156125ee576125ed61218b565b5b60006125fc848285016123d8565b91505092915050565b61260e8161221a565b811461261957600080fd5b50565b60008135905061262b81612605565b92915050565b600080604083850312156126485761264761218b565b5b6000612656858286016123d8565b92505060206126678582860161261c565b9150509250929050565b600080fd5b600080fd5b7f4e487b7100000000000000000000000000000000000000000000000000000000600052604160045260246000fd5b6126b382612296565b810181811067ffffffffffffffff821117156126d2576126d161267b565b5b80604052505050565b60006126e5612181565b90506126f182826126aa565b919050565b600067ffffffffffffffff8211156127115761271061267b565b5b61271a82612296565b9050602081019050919050565b82818337600083830152505050565b6000612749612744846126f6565b6126db565b90508281526020810184848401111561276557612764612676565b5b612770848285612727565b509392505050565b600082601f83011261278d5761278c612671565b5b813561279d848260208601612736565b91505092915050565b600080600080608085870312156127c0576127bf61218b565b5b60006127ce878288016123d8565b94505060206127df878288016123d8565b93505060406127f087828801612323565b925050606085013567ffffffffffffffff81111561281157612810612190565b5b61281d87828801612778565b91505092959194509250565b600067ffffffffffffffff8211156128445761284361267b565b5b61284d82612296565b9050602081019050919050565b600061286d61286884612829565b6126db565b90508281526020810184848401111561288957612888612676565b5b612894848285612727565b509392505050565b600082601f8301126128b1576128b0612671565b5b81356128c184826020860161285a565b91505092915050565b6000602082840312156128e0576128df61218b565b5b600082013567ffffffffffffffff8111156128fe576128fd612190565b5b61290a8482850161289c565b91505092915050565b6000806040838503121561292a5761292961218b565b5b6000612938858286016123d8565b9250506020612949858286016123d8565b9150509250929050565b7f4e487b7100000000000000000000000000000000000000000000000000000000600052602260045260246000fd5b6000600282049050600182168061299a57607f821691505b6020821081036129ad576129ac612953565b5b50919050565b7f4552433732313a20617070726f76616c20746f2063757272656e74206f776e6560008201527f7200000000000000000000000000000000000000000000000000000000000000602082015250565b6000612a0f60218361225b565b9150612a1a826129b3565b604082019050919050565b60006020820190508181036000830152612a3e81612a02565b9050919050565b7f4552433732313a20617070726f76652063616c6c6572206973206e6f7420746f60008201527f6b656e206f776e6572206f7220617070726f76656420666f7220616c6c000000602082015250565b6000612aa1603d8361225b565b9150612aac82612a45565b604082019050919050565b60006020820190508181036000830152612ad081612a94565b9050919050565b7f4552433732313a2063616c6c6572206973206e6f7420746f6b656e206f776e6560008201527f72206f7220617070726f76656400000000000000000000000000000000000000602082015250565b6000612b33602d8361225b565b9150612b3e82612ad7565b604082019050919050565b60006020820190508181036000830152612b6281612b26565b9050919050565b7f455243373231456e756d657261626c653a206f776e657220696e646578206f7560008201527f74206f6620626f756e6473000000000000000000000000000000000000000000602082015250565b6000612bc5602b8361225b565b9150612bd082612b69565b604082019050919050565b60006020820190508181036000830152612bf481612bb8565b9050919050565b7f455243373231456e756d657261626c653a20676c6f62616c20696e646578206f60008201527f7574206f6620626f756e64730000000000000000000000000000000000000000602082015250565b6000612c57602c8361225b565b9150612c6282612bfb565b604082019050919050565b60006020820190508181036000830152612c8681612c4a565b9050919050565b7f4e487b7100000000000000000000000000000000000000000000000000000000600052603260045260246000fd5b7f4552433732313a20696e76616c696420746f6b656e2049440000000000000000600082015250565b6000612cf260188361225b565b9150612cfd82612cbc565b602082019050919050565b60006020820190508181036000830152612d2181612ce5565b9050919050565b7f4552433732313a2061646472657373207a65726f206973206e6f74206120766160008201527f6c6964206f776e65720000000000000000000000000000000000000000000000602082015250565b6000612d8460298361225b565b9150612d8f82612d28565b604082019050919050565b60006020820190508181036000830152612db381612d77565b9050919050565b600081905092915050565b6000612dd082612250565b612dda8185612dba565b9350612dea81856020860161226c565b80840191505092915050565b6000612e028285612dc5565b9150612e0e8284612dc5565b91508190509392505050565b6000612e268284612dc5565b915081905092915050565b7f436f6c6f7220616c726561647920657869737473210000000000000000000000600082015250565b6000612e6760158361225b565b9150612e7282612e31565b602082019050919050565b60006020820190508181036000830152612e9681612e5a565b9050919050565b60008190508160005260206000209050919050565b60006020601f8301049050919050565b600082821b905092915050565b600060088302612eff7fffffffffffffffffffffffffffffffffffffffffffffffffffffffffffffffff82612ec2565b612f098683612ec2565b95508019841693508086168417925050509392505050565b6000819050919050565b6000612f46612f41612f3c84612302565b612f21565b612302565b9050919050565b6000819050919050565b612f6083612f2b565b612f74612f6c82612f4d565b848454612ecf565b825550505050565b600090565b612f89612f7c565b612f94818484612f57565b505050565b5b81811015612fb857612fad600082612f81565b600181019050612f9a565b5050565b601f821115612ffd57612fce81612e9d565b612fd784612eb2565b81016020851015612fe6578190505b612ffa612ff285612eb2565b830182612f99565b50505b505050565b600082821c905092915050565b600061302060001984600802613002565b1980831691505092915050565b6000613039838361300f565b9150826002028217905092915050565b61305282612250565b67ffffffffffffffff81111561306b5761306a61267b565b5b6130758254612982565b613080828285612fbc565b600060209050601f8311600181146130b357600084156130a1578287015190505b6130ab858261302d565b865550613113565b601f1984166130c186612e9d565b60005b828110156130e9578489015182556001820191506020850194506020810190506130c4565b868310156131065784890151613102601f89168261300f565b8355505b6001600288020188555050505b505050505050565b7f4e487b7100000000000000000000000000000000000000000000000000000000600052601160045260246000fd5b600061315582612302565b915061316083612302565b92508282039050818111156131785761317761311b565b5b92915050565b7f4552433732313a207472616e736665722066726f6d20696e636f72726563742060008201527f6f776e6572000000000000000000000000000000000000000000000000000000602082015250565b60006131da60258361225b565b91506131e58261317e565b604082019050919050565b60006020820190508181036000830152613209816131cd565b9050919050565b7f4552433732313a207472616e7366657220746f20746865207a65726f2061646460008201527f7265737300000000000000000000000000000000000000000000000000000000602082015250565b600061326c60248361225b565b915061327782613210565b604082019050919050565b6000602082019050818103600083015261329b8161325f565b9050919050565b7f4552433732313a20617070726f766520746f2063616c6c657200000000000000600082015250565b60006132d860198361225b565b91506132e3826132a2565b602082019050919050565b60006020820190508181036000830152613307816132cb565b9050919050565b7f4552433732313a207472616e7366657220746f206e6f6e20455243373231526560008201527f63656976657220696d706c656d656e7465720000000000000000000000000000602082015250565b600061336a60328361225b565b91506133758261330e565b604082019050919050565b600060208201905081810360008301526133998161335d565b9050919050565b7f4e487b7100000000000000000000000000000000000000000000000000000000600052601260045260246000fd5b7f4552433732313a206d696e7420746f20746865207a65726f2061646472657373600082015250565b600061340560208361225b565b9150613410826133cf565b602082019050919050565b60006020820190508181036000830152613434816133f8565b9050919050565b7f4552433732313a20746f6b656e20616c7265616479206d696e74656400000000600082015250565b6000613471601c8361225b565b915061347c8261343b565b602082019050919050565b600060208201905081810360008301526134a081613464565b9050919050565b7f455243373231456e756d657261626c653a20636f6e736563757469766520747260008201527f616e7366657273206e6f7420737570706f727465640000000000000000000000602082015250565b600061350360358361225b565b915061350e826134a7565b604082019050919050565b60006020820190508181036000830152613532816134f6565b9050919050565b600081519050919050565b600082825260208201905092915050565b600061356082613539565b61356a8185613544565b935061357a81856020860161226c565b61358381612296565b840191505092915050565b60006080820190506135a36000830187612397565b6135b06020830186612397565b6135bd604083018561242d565b81810360608301526135cf8184613555565b905095945050505050565b6000815190506135e9816121c1565b92915050565b6000602082840312156136055761360461218b565b5b6000613613848285016135da565b91505092915050565b600061362782612302565b915061363283612302565b925082820190508082111561364a5761364961311b565b5b92915050565b7f4e487b7100000000000000000000000000000000000000000000000000000000600052603160045260246000fdfea26469706673582212203c49e5e7fc3236f291ddb69e3587a0042823ec86083981f7f337b8281fb197de64736f6c63430008110033",
  "immutableReferences": {},
  "source": "// SPDX-License-Identifier: MIT\npragma solidity 0.8.17;\n\nimport \"@openzeppelin/contracts/token/ERC721/extensions/ERC721Enumerable.sol\";\nimport \"@openzeppelin/contracts/token/ERC721/ERC721.sol\";\n\n\ncontract Color is ERC721Enumerable  {\n    string[] public mintedColors;\n    mapping(string => bool) _colorExists;\n\n    constructor() ERC721 (\"Unique Colors\", \"UCO\") {}\n\n    function mint(string memory _color) public {\n        require(!_colorExists[_color], 'Color already exists!');\n\n        mintedColors.push(_color);\n        uint _id = mintedColors.length - 1;\n        _mint(msg.sender, _id);\n        _colorExists[_color] = true;\n    }\n\n    function getMintedColors() public view returns (string[] memory) {\n        return mintedColors;\n    }\n}",
  "sourcePath": "/d/universidad/clase/ia/Ejercicio_Blockchain_NFT/truffle/contracts/Color.sol",
  "compiler": {
    "name": "solc",
    "version": "0.8.17+commit.8df45f5f.Emscripten.clang"
  },
  "schemaVersion": "3.4.11",
  "updatedAt": "2023-01-30T12:42:25.554Z",
  "networkType": "ethereum",
  "devdoc": {
    "kind": "dev",
    "methods": {
      "approve(address,uint256)": {
        "details": "See {IERC721-approve}."
      },
      "balanceOf(address)": {
        "details": "See {IERC721-balanceOf}."
      },
      "getApproved(uint256)": {
        "details": "See {IERC721-getApproved}."
      },
      "isApprovedForAll(address,address)": {
        "details": "See {IERC721-isApprovedForAll}."
      },
      "name()": {
        "details": "See {IERC721Metadata-name}."
      },
      "ownerOf(uint256)": {
        "details": "See {IERC721-ownerOf}."
      },
      "safeTransferFrom(address,address,uint256)": {
        "details": "See {IERC721-safeTransferFrom}."
      },
      "safeTransferFrom(address,address,uint256,bytes)": {
        "details": "See {IERC721-safeTransferFrom}."
      },
      "setApprovalForAll(address,bool)": {
        "details": "See {IERC721-setApprovalForAll}."
      },
      "supportsInterface(bytes4)": {
        "details": "See {IERC165-supportsInterface}."
      },
      "symbol()": {
        "details": "See {IERC721Metadata-symbol}."
      },
      "tokenByIndex(uint256)": {
        "details": "See {IERC721Enumerable-tokenByIndex}."
      },
      "tokenOfOwnerByIndex(address,uint256)": {
        "details": "See {IERC721Enumerable-tokenOfOwnerByIndex}."
      },
      "tokenURI(uint256)": {
        "details": "See {IERC721Metadata-tokenURI}."
      },
      "totalSupply()": {
        "details": "See {IERC721Enumerable-totalSupply}."
      },
      "transferFrom(address,address,uint256)": {
        "details": "See {IERC721-transferFrom}."
      }
    },
    "version": 1
  },
  "userdoc": {
    "kind": "user",
    "methods": {},
    "version": 1
  }
}